{
  "address": "0x6ED41E7C5Fc03e5578B57C040eDce3A251B0FDf4",
  "abi": [
    {
      "anonymous": false,
      "inputs": [
        {
          "indexed": false,
          "internalType": "address",
          "name": "previousAdmin",
          "type": "address"
        },
        {
          "indexed": false,
          "internalType": "address",
          "name": "newAdmin",
          "type": "address"
        }
      ],
      "name": "AdminChanged",
      "type": "event"
    },
    {
      "anonymous": false,
      "inputs": [
        {
          "indexed": true,
          "internalType": "address",
          "name": "owner",
          "type": "address"
        },
        {
          "indexed": true,
          "internalType": "address",
          "name": "spender",
          "type": "address"
        },
        {
          "indexed": false,
          "internalType": "uint256",
          "name": "value",
          "type": "uint256"
        }
      ],
      "name": "Approval",
      "type": "event"
    },
    {
      "anonymous": false,
      "inputs": [
        {
          "indexed": true,
          "internalType": "address",
          "name": "beacon",
          "type": "address"
        }
      ],
      "name": "BeaconUpgraded",
      "type": "event"
    },
    {
      "anonymous": false,
      "inputs": [
        {
          "indexed": false,
          "internalType": "uint8",
          "name": "version",
          "type": "uint8"
        }
      ],
      "name": "Initialized",
      "type": "event"
    },
    {
      "anonymous": false,
      "inputs": [
        {
          "indexed": true,
          "internalType": "address",
          "name": "previousOwner",
          "type": "address"
        },
        {
          "indexed": true,
          "internalType": "address",
          "name": "newOwner",
          "type": "address"
        }
      ],
      "name": "OwnershipTransferred",
      "type": "event"
    },
    {
      "anonymous": false,
      "inputs": [
        {
          "indexed": false,
          "internalType": "address",
          "name": "account",
          "type": "address"
        }
      ],
      "name": "Paused",
      "type": "event"
    },
    {
      "anonymous": false,
      "inputs": [
        {
          "indexed": true,
          "internalType": "bytes32",
          "name": "role",
          "type": "bytes32"
        },
        {
          "indexed": true,
          "internalType": "bytes32",
          "name": "previousAdminRole",
          "type": "bytes32"
        },
        {
          "indexed": true,
          "internalType": "bytes32",
          "name": "newAdminRole",
          "type": "bytes32"
        }
      ],
      "name": "RoleAdminChanged",
      "type": "event"
    },
    {
      "anonymous": false,
      "inputs": [
        {
          "indexed": true,
          "internalType": "bytes32",
          "name": "role",
          "type": "bytes32"
        },
        {
          "indexed": true,
          "internalType": "address",
          "name": "account",
          "type": "address"
        },
        {
          "indexed": true,
          "internalType": "address",
          "name": "sender",
          "type": "address"
        }
      ],
      "name": "RoleGranted",
      "type": "event"
    },
    {
      "anonymous": false,
      "inputs": [
        {
          "indexed": true,
          "internalType": "bytes32",
          "name": "role",
          "type": "bytes32"
        },
        {
          "indexed": true,
          "internalType": "address",
          "name": "account",
          "type": "address"
        },
        {
          "indexed": true,
          "internalType": "address",
          "name": "sender",
          "type": "address"
        }
      ],
      "name": "RoleRevoked",
      "type": "event"
    },
    {
      "anonymous": false,
      "inputs": [
        {
          "indexed": false,
          "internalType": "uint256",
          "name": "id",
          "type": "uint256"
        }
      ],
      "name": "Snapshot",
      "type": "event"
    },
    {
      "anonymous": false,
      "inputs": [
        {
          "indexed": true,
          "internalType": "address",
          "name": "from",
          "type": "address"
        },
        {
          "indexed": true,
          "internalType": "address",
          "name": "to",
          "type": "address"
        },
        {
          "indexed": false,
          "internalType": "uint256",
          "name": "value",
          "type": "uint256"
        }
      ],
      "name": "Transfer",
      "type": "event"
    },
    {
      "anonymous": false,
      "inputs": [
        {
          "indexed": false,
          "internalType": "address",
          "name": "account",
          "type": "address"
        }
      ],
      "name": "Unpaused",
      "type": "event"
    },
    {
      "anonymous": false,
      "inputs": [
        {
          "indexed": true,
          "internalType": "address",
          "name": "implementation",
          "type": "address"
        }
      ],
      "name": "Upgraded",
      "type": "event"
    },
    {
      "inputs": [],
      "name": "DEFAULT_ADMIN_ROLE",
      "outputs": [
        {
          "internalType": "bytes32",
          "name": "",
          "type": "bytes32"
        }
      ],
      "stateMutability": "view",
      "type": "function"
    },
    {
      "inputs": [],
      "name": "DOMAIN_SEPARATOR",
      "outputs": [
        {
          "internalType": "bytes32",
          "name": "",
          "type": "bytes32"
        }
      ],
      "stateMutability": "view",
      "type": "function"
    },
    {
      "inputs": [],
      "name": "MINTER_ROLE",
      "outputs": [
        {
          "internalType": "bytes32",
          "name": "",
          "type": "bytes32"
        }
      ],
      "stateMutability": "view",
      "type": "function"
    },
    {
      "inputs": [],
      "name": "PAUSER_ROLE",
      "outputs": [
        {
          "internalType": "bytes32",
          "name": "",
          "type": "bytes32"
        }
      ],
      "stateMutability": "view",
      "type": "function"
    },
    {
      "inputs": [
        {
          "internalType": "address",
          "name": "owner",
          "type": "address"
        },
        {
          "internalType": "address",
          "name": "spender",
          "type": "address"
        }
      ],
      "name": "allowance",
      "outputs": [
        {
          "internalType": "uint256",
          "name": "",
          "type": "uint256"
        }
      ],
      "stateMutability": "view",
      "type": "function"
    },
    {
      "inputs": [
        {
          "internalType": "address",
          "name": "spender",
          "type": "address"
        },
        {
          "internalType": "uint256",
          "name": "amount",
          "type": "uint256"
        }
      ],
      "name": "approve",
      "outputs": [
        {
          "internalType": "bool",
          "name": "",
          "type": "bool"
        }
      ],
      "stateMutability": "nonpayable",
      "type": "function"
    },
    {
      "inputs": [
        {
          "internalType": "address",
          "name": "account",
          "type": "address"
        }
      ],
      "name": "balanceOf",
      "outputs": [
        {
          "internalType": "uint256",
          "name": "",
          "type": "uint256"
        }
      ],
      "stateMutability": "view",
      "type": "function"
    },
    {
      "inputs": [
        {
          "internalType": "address",
          "name": "account",
          "type": "address"
        },
        {
          "internalType": "uint256",
          "name": "snapshotId",
          "type": "uint256"
        }
      ],
      "name": "balanceOfAt",
      "outputs": [
        {
          "internalType": "uint256",
          "name": "",
          "type": "uint256"
        }
      ],
      "stateMutability": "view",
      "type": "function"
    },
    {
      "inputs": [
        {
          "internalType": "uint256",
          "name": "amount",
          "type": "uint256"
        }
      ],
      "name": "burn",
      "outputs": [],
      "stateMutability": "nonpayable",
      "type": "function"
    },
    {
      "inputs": [
        {
          "internalType": "address",
          "name": "account",
          "type": "address"
        },
        {
          "internalType": "uint256",
          "name": "amount",
          "type": "uint256"
        }
      ],
      "name": "burnFrom",
      "outputs": [],
      "stateMutability": "nonpayable",
      "type": "function"
    },
    {
      "inputs": [],
      "name": "createSnapshot",
      "outputs": [
        {
          "internalType": "uint256",
          "name": "",
          "type": "uint256"
        }
      ],
      "stateMutability": "nonpayable",
      "type": "function"
    },
    {
      "inputs": [],
      "name": "decimals",
      "outputs": [
        {
          "internalType": "uint8",
          "name": "",
          "type": "uint8"
        }
      ],
      "stateMutability": "view",
      "type": "function"
    },
    {
      "inputs": [
        {
          "internalType": "address",
          "name": "spender",
          "type": "address"
        },
        {
          "internalType": "uint256",
          "name": "subtractedValue",
          "type": "uint256"
        }
      ],
      "name": "decreaseAllowance",
      "outputs": [
        {
          "internalType": "bool",
          "name": "",
          "type": "bool"
        }
      ],
      "stateMutability": "nonpayable",
      "type": "function"
    },
    {
      "inputs": [
        {
          "internalType": "bytes32",
          "name": "role",
          "type": "bytes32"
        }
      ],
      "name": "getRoleAdmin",
      "outputs": [
        {
          "internalType": "bytes32",
          "name": "",
          "type": "bytes32"
        }
      ],
      "stateMutability": "view",
      "type": "function"
    },
    {
      "inputs": [
        {
          "internalType": "bytes32",
          "name": "role",
          "type": "bytes32"
        },
        {
          "internalType": "uint256",
          "name": "index",
          "type": "uint256"
        }
      ],
      "name": "getRoleMember",
      "outputs": [
        {
          "internalType": "address",
          "name": "",
          "type": "address"
        }
      ],
      "stateMutability": "view",
      "type": "function"
    },
    {
      "inputs": [
        {
          "internalType": "bytes32",
          "name": "role",
          "type": "bytes32"
        }
      ],
      "name": "getRoleMemberCount",
      "outputs": [
        {
          "internalType": "uint256",
          "name": "",
          "type": "uint256"
        }
      ],
      "stateMutability": "view",
      "type": "function"
    },
    {
      "inputs": [
        {
          "internalType": "bytes32",
          "name": "role",
          "type": "bytes32"
        },
        {
          "internalType": "address",
          "name": "account",
          "type": "address"
        }
      ],
      "name": "grantRole",
      "outputs": [],
      "stateMutability": "nonpayable",
      "type": "function"
    },
    {
      "inputs": [
        {
          "internalType": "bytes32",
          "name": "role",
          "type": "bytes32"
        },
        {
          "internalType": "address",
          "name": "account",
          "type": "address"
        }
      ],
      "name": "hasRole",
      "outputs": [
        {
          "internalType": "bool",
          "name": "",
          "type": "bool"
        }
      ],
      "stateMutability": "view",
      "type": "function"
    },
    {
      "inputs": [
        {
          "internalType": "address",
          "name": "spender",
          "type": "address"
        },
        {
          "internalType": "uint256",
          "name": "addedValue",
          "type": "uint256"
        }
      ],
      "name": "increaseAllowance",
      "outputs": [
        {
          "internalType": "bool",
          "name": "",
          "type": "bool"
        }
      ],
      "stateMutability": "nonpayable",
      "type": "function"
    },
    {
      "inputs": [
        {
          "internalType": "string",
          "name": "name",
          "type": "string"
        },
        {
          "internalType": "string",
          "name": "symbol",
          "type": "string"
        }
      ],
      "name": "initialize",
      "outputs": [],
      "stateMutability": "nonpayable",
      "type": "function"
    },
    {
      "inputs": [
        {
          "internalType": "uint256",
          "name": "initialSupply",
          "type": "uint256"
        }
      ],
      "name": "initializeToken",
      "outputs": [],
      "stateMutability": "nonpayable",
      "type": "function"
    },
    {
      "inputs": [
        {
          "internalType": "address",
          "name": "to",
          "type": "address"
        },
        {
          "internalType": "uint256",
          "name": "amount",
          "type": "uint256"
        }
      ],
      "name": "mint",
      "outputs": [],
      "stateMutability": "nonpayable",
      "type": "function"
    },
    {
      "inputs": [],
      "name": "name",
      "outputs": [
        {
          "internalType": "string",
          "name": "",
          "type": "string"
        }
      ],
      "stateMutability": "view",
      "type": "function"
    },
    {
      "inputs": [
        {
          "internalType": "address",
          "name": "owner",
          "type": "address"
        }
      ],
      "name": "nonces",
      "outputs": [
        {
          "internalType": "uint256",
          "name": "",
          "type": "uint256"
        }
      ],
      "stateMutability": "view",
      "type": "function"
    },
    {
      "inputs": [],
      "name": "owner",
      "outputs": [
        {
          "internalType": "address",
          "name": "",
          "type": "address"
        }
      ],
      "stateMutability": "view",
      "type": "function"
    },
    {
      "inputs": [],
      "name": "pause",
      "outputs": [],
      "stateMutability": "nonpayable",
      "type": "function"
    },
    {
      "inputs": [],
      "name": "paused",
      "outputs": [
        {
          "internalType": "bool",
          "name": "",
          "type": "bool"
        }
      ],
      "stateMutability": "view",
      "type": "function"
    },
    {
      "inputs": [
        {
          "internalType": "address",
          "name": "owner",
          "type": "address"
        },
        {
          "internalType": "address",
          "name": "spender",
          "type": "address"
        },
        {
          "internalType": "uint256",
          "name": "value",
          "type": "uint256"
        },
        {
          "internalType": "uint256",
          "name": "deadline",
          "type": "uint256"
        },
        {
          "internalType": "uint8",
          "name": "v",
          "type": "uint8"
        },
        {
          "internalType": "bytes32",
          "name": "r",
          "type": "bytes32"
        },
        {
          "internalType": "bytes32",
          "name": "s",
          "type": "bytes32"
        }
      ],
      "name": "permit",
      "outputs": [],
      "stateMutability": "nonpayable",
      "type": "function"
    },
    {
      "inputs": [],
      "name": "proxiableUUID",
      "outputs": [
        {
          "internalType": "bytes32",
          "name": "",
          "type": "bytes32"
        }
      ],
      "stateMutability": "view",
      "type": "function"
    },
    {
      "inputs": [],
      "name": "renounceOwnership",
      "outputs": [],
      "stateMutability": "nonpayable",
      "type": "function"
    },
    {
      "inputs": [
        {
          "internalType": "bytes32",
          "name": "role",
          "type": "bytes32"
        },
        {
          "internalType": "address",
          "name": "account",
          "type": "address"
        }
      ],
      "name": "renounceRole",
      "outputs": [],
      "stateMutability": "nonpayable",
      "type": "function"
    },
    {
      "inputs": [
        {
          "internalType": "bytes32",
          "name": "role",
          "type": "bytes32"
        },
        {
          "internalType": "address",
          "name": "account",
          "type": "address"
        }
      ],
      "name": "revokeRole",
      "outputs": [],
      "stateMutability": "nonpayable",
      "type": "function"
    },
    {
      "inputs": [
        {
          "internalType": "bytes4",
          "name": "interfaceId",
          "type": "bytes4"
        }
      ],
      "name": "supportsInterface",
      "outputs": [
        {
          "internalType": "bool",
          "name": "",
          "type": "bool"
        }
      ],
      "stateMutability": "view",
      "type": "function"
    },
    {
      "inputs": [],
      "name": "symbol",
      "outputs": [
        {
          "internalType": "string",
          "name": "",
          "type": "string"
        }
      ],
      "stateMutability": "view",
      "type": "function"
    },
    {
      "inputs": [],
      "name": "totalSupply",
      "outputs": [
        {
          "internalType": "uint256",
          "name": "",
          "type": "uint256"
        }
      ],
      "stateMutability": "view",
      "type": "function"
    },
    {
      "inputs": [
        {
          "internalType": "uint256",
          "name": "snapshotId",
          "type": "uint256"
        }
      ],
      "name": "totalSupplyAt",
      "outputs": [
        {
          "internalType": "uint256",
          "name": "",
          "type": "uint256"
        }
      ],
      "stateMutability": "view",
      "type": "function"
    },
    {
      "inputs": [
        {
          "internalType": "address",
          "name": "to",
          "type": "address"
        },
        {
          "internalType": "uint256",
          "name": "amount",
          "type": "uint256"
        }
      ],
      "name": "transfer",
      "outputs": [
        {
          "internalType": "bool",
          "name": "",
          "type": "bool"
        }
      ],
      "stateMutability": "nonpayable",
      "type": "function"
    },
    {
      "inputs": [
        {
          "internalType": "address",
          "name": "from",
          "type": "address"
        },
        {
          "internalType": "address",
          "name": "to",
          "type": "address"
        },
        {
          "internalType": "uint256",
          "name": "amount",
          "type": "uint256"
        }
      ],
      "name": "transferFrom",
      "outputs": [
        {
          "internalType": "bool",
          "name": "",
          "type": "bool"
        }
      ],
      "stateMutability": "nonpayable",
      "type": "function"
    },
    {
      "inputs": [
        {
          "internalType": "address",
          "name": "newOwner",
          "type": "address"
        }
      ],
      "name": "transferOwnership",
      "outputs": [],
      "stateMutability": "nonpayable",
      "type": "function"
    },
    {
      "inputs": [],
      "name": "unpause",
      "outputs": [],
      "stateMutability": "nonpayable",
      "type": "function"
    },
    {
      "inputs": [
        {
          "internalType": "address",
          "name": "newImplementation",
          "type": "address"
        }
      ],
      "name": "upgradeTo",
      "outputs": [],
      "stateMutability": "nonpayable",
      "type": "function"
    },
    {
      "inputs": [
        {
          "internalType": "address",
          "name": "newImplementation",
          "type": "address"
        },
        {
          "internalType": "bytes",
          "name": "data",
          "type": "bytes"
        }
      ],
      "name": "upgradeToAndCall",
      "outputs": [],
      "stateMutability": "payable",
      "type": "function"
    },
    {
      "inputs": [
        {
          "internalType": "string",
          "name": "mailTo",
          "type": "string"
        },
        {
          "internalType": "string",
          "name": "mailContents",
          "type": "string"
        },
        {
          "internalType": "bytes",
          "name": "signature",
          "type": "bytes"
        }
      ],
      "name": "verifyVote",
      "outputs": [
        {
          "internalType": "address",
          "name": "",
          "type": "address"
        }
      ],
      "stateMutability": "nonpayable",
      "type": "function"
    }
  ],
  "transactionHash": "0x3d1ca0deea8e54305b620b7fc6a3e7dfbde100625232c9008737be44a51fe3e5",
  "args": [],
  "numDeployments": 1,
  "solcInputHash": "70d14fdcdee20845a4cf6c2525f51819",
  "bytecode": "0x60a06040523060805234801561001457600080fd5b5060805161380b61004c60003960008181610ae901528181610b2901528181610dd601528181610e160152610ea5015261380b6000f3fe60806040526004361061025c5760003560e01c80635c975abb11610144578063a217fddf116100b6578063d53913931161007a578063d5391393146106e6578063d547741f1461071a578063dd62ed3e1461073a578063e63ab1e91461075a578063f2fde38b1461077c578063fdf2123d1461079c57600080fd5b8063a217fddf14610651578063a457c2d714610666578063a9059cbb14610686578063ca15c873146106a6578063d505accf146106c657600080fd5b80638456cb59116101085780638456cb59146105945780638da5cb5b146105a95780639010d07c146105dc57806391d14854146105fc57806395d89b411461061c578063981b24d01461063157600080fd5b80635c975abb146104f057806370a0823114610509578063715018a61461053f57806379cc6790146105545780637ecebe001461057457600080fd5b80633644e515116101dd57806340c10f19116101a157806340c10f191461044857806342966c68146104685780634cd88b76146104885780634ee2cd7e146104a85780634f1ef286146104c857806352d1902d146104db57600080fd5b80633644e515146103be57806336568abe146103d35780633659cfe6146103f357806339509351146104135780633f4ba83a1461043357600080fd5b806323b872dd1161022457806323b872dd14610310578063248a9ca3146103305780632c50dcfb146103605780632f2ff15d14610382578063313ce567146103a257600080fd5b806301ffc9a71461026157806306fdde0314610296578063095ea7b3146102b85780631504d8f0146102d857806318160ddd146102fb575b600080fd5b34801561026d57600080fd5b5061028161027c366004612ffd565b6107bc565b60405190151581526020015b60405180910390f35b3480156102a257600080fd5b506102ab6107e7565b60405161028d919061307f565b3480156102c457600080fd5b506102816102d33660046130a9565b610879565b3480156102e457600080fd5b506102ed610891565b60405190815260200161028d565b34801561030757600080fd5b5060cb546102ed565b34801561031c57600080fd5b5061028161032b3660046130d3565b61090f565b34801561033c57600080fd5b506102ed61034b36600461310f565b60009081526065602052604090206001015490565b34801561036c57600080fd5b5061038061037b36600461310f565b610935565b005b34801561038e57600080fd5b5061038061039d366004613128565b610a30565b3480156103ae57600080fd5b506040516012815260200161028d565b3480156103ca57600080fd5b506102ed610a5a565b3480156103df57600080fd5b506103806103ee366004613128565b610a64565b3480156103ff57600080fd5b5061038061040e366004613154565b610ade565b34801561041f57600080fd5b5061028161042e3660046130a9565b610bbe565b34801561043f57600080fd5b50610380610be0565b34801561045457600080fd5b506103806104633660046130a9565b610c62565b34801561047457600080fd5b5061038061048336600461310f565b610cef565b34801561049457600080fd5b506103806104a3366004613212565b610cf9565b3480156104b457600080fd5b506102ed6104c33660046130a9565b610d71565b6103806104d6366004613276565b610dcb565b3480156104e757600080fd5b506102ed610e98565b3480156104fc57600080fd5b5061012d5460ff16610281565b34801561051557600080fd5b506102ed610524366004613154565b6001600160a01b0316600090815260c9602052604090205490565b34801561054b57600080fd5b50610380610f4b565b34801561056057600080fd5b5061038061056f3660046130a9565b610f80565b34801561058057600080fd5b506102ed61058f366004613154565b610f95565b3480156105a057600080fd5b50610380610fb4565b3480156105b557600080fd5b5061025c546001600160a01b03165b6040516001600160a01b03909116815260200161028d565b3480156105e857600080fd5b506105c46105f73660046132ba565b611034565b34801561060857600080fd5b50610281610617366004613128565b61104c565b34801561062857600080fd5b506102ab611077565b34801561063d57600080fd5b506102ed61064c36600461310f565b611086565b34801561065d57600080fd5b506102ed600081565b34801561067257600080fd5b506102816106813660046130a9565b6110b2565b34801561069257600080fd5b506102816106a13660046130a9565b611138565b3480156106b257600080fd5b506102ed6106c136600461310f565b611146565b3480156106d257600080fd5b506103806106e13660046132dc565b61115d565b3480156106f257600080fd5b506102ed7f9f2df0fed2c77648de5860a4cc508cd0818c85b8b8a1ab4ceeef8d981c8956a681565b34801561072657600080fd5b50610380610735366004613128565b6112c1565b34801561074657600080fd5b506102ed61075536600461334f565b6112e6565b34801561076657600080fd5b506102ed60008051602061378f83398151915281565b34801561078857600080fd5b50610380610797366004613154565b611311565b3480156107a857600080fd5b506105c46107b7366004613379565b6113aa565b60006001600160e01b03198216635a05180f60e01b14806107e157506107e18261141f565b92915050565b606060cc80546107f690613401565b80601f016020809104026020016040519081016040528092919081815260200182805461082290613401565b801561086f5780601f106108445761010080835404028352916020019161086f565b820191906000526020600020905b81548152906001019060200180831161085257829003601f168201915b5050505050905090565b600033610887818585611454565b5060019392505050565b600061089d813361104c565b6109025760405162461bcd60e51b8152602060048201526039602482015260008051602061374f83398151915260448201527f76652061646d696e20726f6c6520746f20736e617073686f740000000000000060648201526084015b60405180910390fd5b61090a611578565b905090565b60003361091d8582856115d3565b61092885858561164d565b60019150505b9392505050565b60006109416001611826565b90508015610959576000805461ff0019166101001790555b6109616118b3565b6109696118da565b6109716118b3565b6109b56040518060400160405280600681526020016552616e646f6d60d01b81525060405180604001604052806004815260200163524e444d60e01b815250611909565b6109dc6040518060400160405280600681526020016552616e646f6d60d01b81525061194c565b6109e63383611996565b8015610a2c576000805461ff0019169055604051600181527f7f26b83ff96e1f2b6a682f133852f6798a09c465da95921460cefb38474024989060200160405180910390a15b5050565b600082815260656020526040902060010154610a4b81611a81565b610a558383611a8b565b505050565b600061090a611aad565b6001600160a01b0381163314610ad45760405162461bcd60e51b815260206004820152602f60248201527f416363657373436f6e74726f6c3a2063616e206f6e6c792072656e6f756e636560448201526e103937b632b9903337b91039b2b63360891b60648201526084016108f9565b610a2c8282611b2a565b306001600160a01b037f0000000000000000000000000000000000000000000000000000000000000000161415610b275760405162461bcd60e51b81526004016108f990613436565b7f00000000000000000000000000000000000000000000000000000000000000006001600160a01b0316610b7060008051602061376f833981519152546001600160a01b031690565b6001600160a01b031614610b965760405162461bcd60e51b81526004016108f990613482565b610b9f81611b4c565b60408051600080825260208201909252610bbb91839190611b77565b50565b600033610887818585610bd183836112e6565b610bdb91906134e4565b611454565b610bf860008051602061378f8339815191523361104c565b610c585760405162461bcd60e51b8152602060048201526039602482015260008051602061374f83398151915260448201527f76652070617573657220726f6c6520746f20756e70617573650000000000000060648201526084016108f9565b610c60611ce2565b565b610c8c7f9f2df0fed2c77648de5860a4cc508cd0818c85b8b8a1ab4ceeef8d981c8956a63361104c565b610ce55760405162461bcd60e51b8152602060048201526036602482015260008051602061374f8339815191526044820152751d99481b5a5b9d195c881c9bdb19481d1bc81b5a5b9d60521b60648201526084016108f9565b610a2c8282611996565b610bbb3382611d77565b6000610d056001611826565b90508015610d1d576000805461ff0019166101001790555b610d278383611909565b8015610a55576000805461ff0019169055604051600181527f7f26b83ff96e1f2b6a682f133852f6798a09c465da95921460cefb38474024989060200160405180910390a1505050565b6001600160a01b03821660009081526101c36020526040812081908190610d99908590611ed1565b9150915081610dc0576001600160a01b038516600090815260c96020526040902054610dc2565b805b95945050505050565b306001600160a01b037f0000000000000000000000000000000000000000000000000000000000000000161415610e145760405162461bcd60e51b81526004016108f990613436565b7f00000000000000000000000000000000000000000000000000000000000000006001600160a01b0316610e5d60008051602061376f833981519152546001600160a01b031690565b6001600160a01b031614610e835760405162461bcd60e51b81526004016108f990613482565b610e8c82611b4c565b610a2c82826001611b77565b6000306001600160a01b037f00000000000000000000000000000000000000000000000000000000000000001614610f385760405162461bcd60e51b815260206004820152603860248201527f555550535570677261646561626c653a206d757374206e6f742062652063616c60448201527f6c6564207468726f7567682064656c656761746563616c6c000000000000000060648201526084016108f9565b5060008051602061376f83398151915290565b61025c546001600160a01b03163314610f765760405162461bcd60e51b81526004016108f9906134fc565b610c606000611fc8565b610f8b8233836115d3565b610a2c8282611d77565b6001600160a01b038116600090815261022960205260408120546107e1565b610fcc60008051602061378f8339815191523361104c565b61102c5760405162461bcd60e51b8152602060048201526037602482015260008051602061374f83398151915260448201527f76652070617573657220726f6c6520746f20706175736500000000000000000060648201526084016108f9565b610c6061201b565b600082815260976020526040812061092e9083612098565b60009182526065602090815260408084206001600160a01b0393909316845291905290205460ff1690565b606060cd80546107f690613401565b6000806000611097846101c4611ed1565b91509150816110a85760cb546110aa565b805b949350505050565b600033816110c082866112e6565b9050838110156111205760405162461bcd60e51b815260206004820152602560248201527f45524332303a2064656372656173656420616c6c6f77616e63652062656c6f77604482015264207a65726f60d81b60648201526084016108f9565b61112d8286868403611454565b506001949350505050565b60003361088781858561164d565b60008181526097602052604081206107e1906120a4565b834211156111ad5760405162461bcd60e51b815260206004820152601d60248201527f45524332305065726d69743a206578706972656420646561646c696e6500000060448201526064016108f9565b60007f6e71edae12b1b97f4d1f60370fef10105fa2faae0126114a169c64845d6126c98888886111dc8c6120ae565b6040805160208101969096526001600160a01b0394851690860152929091166060840152608083015260a082015260c0810186905260e0016040516020818303038152906040528051906020012090506000611237826120d7565b9050600061124782878787612125565b9050896001600160a01b0316816001600160a01b0316146112aa5760405162461bcd60e51b815260206004820152601e60248201527f45524332305065726d69743a20696e76616c6964207369676e6174757265000060448201526064016108f9565b6112b58a8a8a611454565b50505050505050505050565b6000828152606560205260409020600101546112dc81611a81565b610a558383611b2a565b6001600160a01b03918216600090815260ca6020908152604080832093909416825291909152205490565b61025c546001600160a01b0316331461133c5760405162461bcd60e51b81526004016108f9906134fc565b6001600160a01b0381166113a15760405162461bcd60e51b815260206004820152602660248201527f4f776e61626c653a206e6577206f776e657220697320746865207a65726f206160448201526564647265737360d01b60648201526084016108f9565b610bbb81611fc8565b6000806114077f847fc9da8ec3c72cae85ca691245eaeb0a4a1e74f77c3a919c43afda231d39ba8686805190602001206040516020016113ec93929190613531565b604051602081830303815290604052805190602001206120d7565b90506000611415828561214d565b9695505050505050565b60006001600160e01b03198216637965db0b60e01b14806107e157506301ffc9a760e01b6001600160e01b03198316146107e1565b6001600160a01b0383166114b65760405162461bcd60e51b8152602060048201526024808201527f45524332303a20617070726f76652066726f6d20746865207a65726f206164646044820152637265737360e01b60648201526084016108f9565b6001600160a01b0382166115175760405162461bcd60e51b815260206004820152602260248201527f45524332303a20617070726f766520746f20746865207a65726f206164647265604482015261737360f01b60648201526084016108f9565b6001600160a01b03838116600081815260ca602090815260408083209487168084529482529182902085905590518481527f8c5be1e5ebec7d5bd14f71427d1e84f3dd0314c0f7b2291e5b200ac8c7c3b925910160405180910390a3505050565b60006115896101c680546001019055565b6000611593612171565b90507f8030e83b04d87bef53480e26263266d6ca66863aa8506aca6f2559d18aa1cb67816040516115c691815260200190565b60405180910390a1919050565b60006115df84846112e6565b90506000198114611647578181101561163a5760405162461bcd60e51b815260206004820152601d60248201527f45524332303a20696e73756666696369656e7420616c6c6f77616e636500000060448201526064016108f9565b6116478484848403611454565b50505050565b6001600160a01b0383166116b15760405162461bcd60e51b815260206004820152602560248201527f45524332303a207472616e736665722066726f6d20746865207a65726f206164604482015264647265737360d81b60648201526084016108f9565b6001600160a01b0382166117135760405162461bcd60e51b815260206004820152602360248201527f45524332303a207472616e7366657220746f20746865207a65726f206164647260448201526265737360e81b60648201526084016108f9565b61171e83838361217d565b6001600160a01b038316600090815260c96020526040902054818110156117965760405162461bcd60e51b815260206004820152602660248201527f45524332303a207472616e7366657220616d6f756e7420657863656564732062604482015265616c616e636560d01b60648201526084016108f9565b6001600160a01b03808516600090815260c960205260408082208585039055918516815290812080548492906117cd9084906134e4565b92505081905550826001600160a01b0316846001600160a01b03167fddf252ad1be2c89b69c2b068fc378daa952ba7f163c4a11628f55a4df523b3ef8460405161181991815260200190565b60405180910390a3611647565b60008054610100900460ff161561186d578160ff1660011480156118495750303b155b6118655760405162461bcd60e51b81526004016108f99061355a565b506000919050565b60005460ff8084169116106118945760405162461bcd60e51b81526004016108f99061355a565b506000805460ff191660ff92909216919091179055600190565b919050565b600054610100900460ff16610c605760405162461bcd60e51b81526004016108f9906135a8565b600054610100900460ff166119015760405162461bcd60e51b81526004016108f9906135a8565b610c60612188565b600054610100900460ff166119305760405162461bcd60e51b81526004016108f9906135a8565b61193a82826121b8565b611942612206565b610a2c828261223a565b600054610100900460ff166119735760405162461bcd60e51b81526004016108f9906135a8565b610bbb81604051806040016040528060018152602001603160f81b8152506122ae565b6001600160a01b0382166119ec5760405162461bcd60e51b815260206004820152601f60248201527f45524332303a206d696e7420746f20746865207a65726f20616464726573730060448201526064016108f9565b6119f86000838361217d565b8060cb6000828254611a0a91906134e4565b90915550506001600160a01b038216600090815260c9602052604081208054839290611a379084906134e4565b90915550506040518181526001600160a01b038316906000907fddf252ad1be2c89b69c2b068fc378daa952ba7f163c4a11628f55a4df523b3ef9060200160405180910390a35050565b610bbb81336122f1565b611a958282612355565b6000828152609760205260409020610a5590826123db565b600061090a7f8b73c3c69bb8fe3d512ecc4cf759cc79239f7b179b0ffacaa9a75d522b39400f611add6101f55490565b6101f6546040805160208101859052908101839052606081018290524660808201523060a082015260009060c0016040516020818303038152906040528051906020012090509392505050565b611b3482826123f0565b6000828152609760205260409020610a559082612457565b61025c546001600160a01b03163314610bbb5760405162461bcd60e51b81526004016108f9906134fc565b7f4910fdfa16fed3260ed0e7147f7cc6da11a60208b5b9406d12a635614ffd91435460ff1615611baa57610a558361246c565b826001600160a01b03166352d1902d6040518163ffffffff1660e01b8152600401602060405180830381865afa925050508015611c04575060408051601f3d908101601f19168201909252611c01918101906135f3565b60015b611c675760405162461bcd60e51b815260206004820152602e60248201527f45524331393637557067726164653a206e657720696d706c656d656e7461746960448201526d6f6e206973206e6f74205555505360901b60648201526084016108f9565b60008051602061376f8339815191528114611cd65760405162461bcd60e51b815260206004820152602960248201527f45524331393637557067726164653a20756e737570706f727465642070726f786044820152681a58589b195555525160ba1b60648201526084016108f9565b50610a55838383612508565b61012d5460ff16611d2c5760405162461bcd60e51b815260206004820152601460248201527314185d5cd8589b194e881b9bdd081c185d5cd95960621b60448201526064016108f9565b61012d805460ff191690557f5db9ee0a495bf2e6ff9c91a7834c1ba4fdd244a5e8aa4e537bd38aeae4b073aa335b6040516001600160a01b03909116815260200160405180910390a1565b6001600160a01b038216611dd75760405162461bcd60e51b815260206004820152602160248201527f45524332303a206275726e2066726f6d20746865207a65726f206164647265736044820152607360f81b60648201526084016108f9565b611de38260008361217d565b6001600160a01b038216600090815260c9602052604090205481811015611e575760405162461bcd60e51b815260206004820152602260248201527f45524332303a206275726e20616d6f756e7420657863656564732062616c616e604482015261636560f01b60648201526084016108f9565b6001600160a01b038316600090815260c960205260408120838303905560cb8054849290611e8690849061360c565b90915550506040518281526000906001600160a01b038516907fddf252ad1be2c89b69c2b068fc378daa952ba7f163c4a11628f55a4df523b3ef9060200160405180910390a3505050565b60008060008411611f1d5760405162461bcd60e51b815260206004820152601660248201527504552433230536e617073686f743a20696420697320360541b60448201526064016108f9565b611f25612171565b841115611f745760405162461bcd60e51b815260206004820152601d60248201527f4552433230536e617073686f743a206e6f6e6578697374656e7420696400000060448201526064016108f9565b6000611f80848661252d565b8454909150811415611f99576000809250925050611fc1565b6001846001018281548110611fb057611fb0613623565b906000526020600020015492509250505b9250929050565b61025c80546001600160a01b038381166001600160a01b0319831681179093556040519116919082907f8be0079c531659141344cd1fd0a4f28419497f9722a3daafe3b4186f6b6457e090600090a35050565b61012d5460ff16156120625760405162461bcd60e51b815260206004820152601060248201526f14185d5cd8589b194e881c185d5cd95960821b60448201526064016108f9565b61012d805460ff191660011790557f62e78cea01bee320cd4e420270b5ea74000d11b0c9f74754ebdbfc544b05a258611d5a3390565b600061092e83836125f0565b60006107e1825490565b6001600160a01b0381166000908152610229602052604090208054600181018255905b50919050565b60006107e16120e4611aad565b8360405161190160f01b6020820152602281018390526042810182905260009060620160405160208183030381529060405280519060200120905092915050565b60008060006121368787878761261a565b9150915061214381612707565b5095945050505050565b600080600061215c85856128c2565b9150915061216981612707565b509392505050565b600061090a6101c65490565b610a5583838361292f565b600054610100900460ff166121af5760405162461bcd60e51b81526004016108f9906135a8565b610c6033611fc8565b600054610100900460ff166121df5760405162461bcd60e51b81526004016108f9906135a8565b81516121f29060cc906020850190612f64565b508051610a559060cd906020840190612f64565b600054610100900460ff1661222d5760405162461bcd60e51b81526004016108f9906135a8565b61012d805460ff19169055565b600054610100900460ff166122615760405162461bcd60e51b81526004016108f9906135a8565b61226c600033612982565b6122967f9f2df0fed2c77648de5860a4cc508cd0818c85b8b8a1ab4ceeef8d981c8956a633612982565b610a2c60008051602061378f83398151915233612982565b600054610100900460ff166122d55760405162461bcd60e51b81526004016108f9906135a8565b8151602092830120815191909201206101f5919091556101f655565b6122fb828261104c565b610a2c57612313816001600160a01b0316601461298c565b61231e83602061298c565b60405160200161232f929190613639565b60408051601f198184030181529082905262461bcd60e51b82526108f99160040161307f565b61235f828261104c565b610a2c5760008281526065602090815260408083206001600160a01b03851684529091529020805460ff191660011790556123973390565b6001600160a01b0316816001600160a01b0316837f2f8788117e7eff1d82e926ec794901d17c78024a50270940304540a733656f0d60405160405180910390a45050565b600061092e836001600160a01b038416612b28565b6123fa828261104c565b15610a2c5760008281526065602090815260408083206001600160a01b0385168085529252808320805460ff1916905551339285917ff6391f5c32d9c69d2a47ea670b442974b53935d1edc7fd64eb21e047a839171b9190a45050565b600061092e836001600160a01b038416612b77565b6001600160a01b0381163b6124d95760405162461bcd60e51b815260206004820152602d60248201527f455243313936373a206e657720696d706c656d656e746174696f6e206973206e60448201526c1bdd08184818dbdb9d1c9858dd609a1b60648201526084016108f9565b60008051602061376f83398151915280546001600160a01b0319166001600160a01b0392909216919091179055565b61251183612c6a565b60008251118061251e5750805b15610a55576116478383612caa565b815460009061253e575060006107e1565b82546000905b8082101561259a5760006125588383612d95565b90508486828154811061256d5761256d613623565b9060005260206000200154111561258657809150612594565b6125918160016134e4565b92505b50612544565b6000821180156125cf575083856125b260018561360c565b815481106125c2576125c2613623565b9060005260206000200154145b156125e8576125df60018361360c565b925050506107e1565b5090506107e1565b600082600001828154811061260757612607613623565b9060005260206000200154905092915050565b6000807f7fffffffffffffffffffffffffffffff5d576e7357a4501ddfe92f46681b20a083111561265157506000905060036126fe565b8460ff16601b1415801561266957508460ff16601c14155b1561267a57506000905060046126fe565b6040805160008082526020820180845289905260ff881692820192909252606081018690526080810185905260019060a0016020604051602081039080840390855afa1580156126ce573d6000803e3d6000fd5b5050604051601f1901519150506001600160a01b0381166126f7576000600192509250506126fe565b9150600090505b94509492505050565b600081600481111561271b5761271b6136ae565b14156127245750565b6001816004811115612738576127386136ae565b14156127865760405162461bcd60e51b815260206004820152601860248201527f45434453413a20696e76616c6964207369676e6174757265000000000000000060448201526064016108f9565b600281600481111561279a5761279a6136ae565b14156127e85760405162461bcd60e51b815260206004820152601f60248201527f45434453413a20696e76616c6964207369676e6174757265206c656e6774680060448201526064016108f9565b60038160048111156127fc576127fc6136ae565b14156128555760405162461bcd60e51b815260206004820152602260248201527f45434453413a20696e76616c6964207369676e6174757265202773272076616c604482015261756560f01b60648201526084016108f9565b6004816004811115612869576128696136ae565b1415610bbb5760405162461bcd60e51b815260206004820152602260248201527f45434453413a20696e76616c6964207369676e6174757265202776272076616c604482015261756560f01b60648201526084016108f9565b6000808251604114156128f95760208301516040840151606085015160001a6128ed8782858561261a565b94509450505050611fc1565b8251604014156129235760208301516040840151612918868383612db0565b935093505050611fc1565b50600090506002611fc1565b61293a838383612de9565b6001600160a01b0383166129595761295182612df4565b610a55612e28565b6001600160a01b0382166129705761295183612df4565b61297983612df4565b610a5582612df4565b610a2c8282611a8b565b6060600061299b8360026136c4565b6129a69060026134e4565b67ffffffffffffffff8111156129be576129be61316f565b6040519080825280601f01601f1916602001820160405280156129e8576020820181803683370190505b509050600360fc1b81600081518110612a0357612a03613623565b60200101906001600160f81b031916908160001a905350600f60fb1b81600181518110612a3257612a32613623565b60200101906001600160f81b031916908160001a9053506000612a568460026136c4565b612a619060016134e4565b90505b6001811115612ad9576f181899199a1a9b1b9c1cb0b131b232b360811b85600f1660108110612a9557612a95613623565b1a60f81b828281518110612aab57612aab613623565b60200101906001600160f81b031916908160001a90535060049490941c93612ad2816136e3565b9050612a64565b50831561092e5760405162461bcd60e51b815260206004820181905260248201527f537472696e67733a20686578206c656e67746820696e73756666696369656e7460448201526064016108f9565b6000818152600183016020526040812054612b6f575081546001818101845560008481526020808220909301849055845484825282860190935260409020919091556107e1565b5060006107e1565b60008181526001830160205260408120548015612c60576000612b9b60018361360c565b8554909150600090612baf9060019061360c565b9050818114612c14576000866000018281548110612bcf57612bcf613623565b9060005260206000200154905080876000018481548110612bf257612bf2613623565b6000918252602080832090910192909255918252600188019052604090208390555b8554869080612c2557612c256136fa565b6001900381819060005260206000200160009055905585600101600086815260200190815260200160002060009055600193505050506107e1565b60009150506107e1565b612c738161246c565b6040516001600160a01b038216907fbc7cd75a20ee27fd9adebab32041f755214dbc6bffa90cc0225b39da2e5c2d3b90600090a250565b60606001600160a01b0383163b612d125760405162461bcd60e51b815260206004820152602660248201527f416464726573733a2064656c65676174652063616c6c20746f206e6f6e2d636f6044820152651b9d1c9858dd60d21b60648201526084016108f9565b600080846001600160a01b031684604051612d2d9190613710565b600060405180830381855af49150503d8060008114612d68576040519150601f19603f3d011682016040523d82523d6000602084013e612d6d565b606091505b5091509150610dc282826040518060600160405280602781526020016137af60279139612e37565b6000612da4600284841861372c565b61092e908484166134e4565b6000806001600160ff1b03831681612dcd60ff86901c601b6134e4565b9050612ddb8782888561261a565b935093505050935093915050565b610a55838383612e70565b6001600160a01b03811660009081526101c36020908152604080832060c990925290912054610bbb9190612ed7565b612ed7565b610c606101c4612e2360cb5490565b60608315612e4657508161092e565b825115612e565782518084602001fd5b8160405162461bcd60e51b81526004016108f9919061307f565b61012d5460ff1615610a555760405162461bcd60e51b815260206004820152602a60248201527f45524332305061757361626c653a20746f6b656e207472616e736665722077686044820152691a5b19481c185d5cd95960b21b60648201526084016108f9565b6000612ee1612171565b905080612eed84612f21565b1015610a55578254600180820185556000858152602080822090930193909355938401805494850181558252902090910155565b8054600090612f3257506000919050565b81548290612f429060019061360c565b81548110612f5257612f52613623565b90600052602060002001549050919050565b828054612f7090613401565b90600052602060002090601f016020900481019282612f925760008555612fd8565b82601f10612fab57805160ff1916838001178555612fd8565b82800160010185558215612fd8579182015b82811115612fd8578251825591602001919060010190612fbd565b50612fe4929150612fe8565b5090565b5b80821115612fe45760008155600101612fe9565b60006020828403121561300f57600080fd5b81356001600160e01b03198116811461092e57600080fd5b60005b8381101561304257818101518382015260200161302a565b838111156116475750506000910152565b6000815180845261306b816020860160208601613027565b601f01601f19169290920160200192915050565b60208152600061092e6020830184613053565b80356001600160a01b03811681146118ae57600080fd5b600080604083850312156130bc57600080fd5b6130c583613092565b946020939093013593505050565b6000806000606084860312156130e857600080fd5b6130f184613092565b92506130ff60208501613092565b9150604084013590509250925092565b60006020828403121561312157600080fd5b5035919050565b6000806040838503121561313b57600080fd5b8235915061314b60208401613092565b90509250929050565b60006020828403121561316657600080fd5b61092e82613092565b634e487b7160e01b600052604160045260246000fd5b600082601f83011261319657600080fd5b813567ffffffffffffffff808211156131b1576131b161316f565b604051601f8301601f19908116603f011681019082821181831017156131d9576131d961316f565b816040528381528660208588010111156131f257600080fd5b836020870160208301376000602085830101528094505050505092915050565b6000806040838503121561322557600080fd5b823567ffffffffffffffff8082111561323d57600080fd5b61324986838701613185565b9350602085013591508082111561325f57600080fd5b5061326c85828601613185565b9150509250929050565b6000806040838503121561328957600080fd5b61329283613092565b9150602083013567ffffffffffffffff8111156132ae57600080fd5b61326c85828601613185565b600080604083850312156132cd57600080fd5b50508035926020909101359150565b600080600080600080600060e0888a0312156132f757600080fd5b61330088613092565b965061330e60208901613092565b95506040880135945060608801359350608088013560ff8116811461333257600080fd5b9699959850939692959460a0840135945060c09093013592915050565b6000806040838503121561336257600080fd5b61336b83613092565b915061314b60208401613092565b60008060006060848603121561338e57600080fd5b833567ffffffffffffffff808211156133a657600080fd5b6133b287838801613185565b945060208601359150808211156133c857600080fd5b6133d487838801613185565b935060408601359150808211156133ea57600080fd5b506133f786828701613185565b9150509250925092565b600181811c9082168061341557607f821691505b602082108114156120d157634e487b7160e01b600052602260045260246000fd5b6020808252602c908201527f46756e6374696f6e206d7573742062652063616c6c6564207468726f7567682060408201526b19195b1959d85d1958d85b1b60a21b606082015260800190565b6020808252602c908201527f46756e6374696f6e206d7573742062652063616c6c6564207468726f7567682060408201526b6163746976652070726f787960a01b606082015260800190565b634e487b7160e01b600052601160045260246000fd5b600082198211156134f7576134f76134ce565b500190565b6020808252818101527f4f776e61626c653a2063616c6c6572206973206e6f7420746865206f776e6572604082015260600190565b83815260606020820152600061354a6060830185613053565b9050826040830152949350505050565b6020808252602e908201527f496e697469616c697a61626c653a20636f6e747261637420697320616c72656160408201526d191e481a5b9a5d1a585b1a5e995960921b606082015260800190565b6020808252602b908201527f496e697469616c697a61626c653a20636f6e7472616374206973206e6f74206960408201526a6e697469616c697a696e6760a81b606082015260800190565b60006020828403121561360557600080fd5b5051919050565b60008282101561361e5761361e6134ce565b500390565b634e487b7160e01b600052603260045260246000fd5b7f416363657373436f6e74726f6c3a206163636f756e7420000000000000000000815260008351613671816017850160208801613027565b7001034b99036b4b9b9b4b733903937b6329607d1b60179184019182015283516136a2816028840160208801613027565b01602801949350505050565b634e487b7160e01b600052602160045260246000fd5b60008160001904831182151516156136de576136de6134ce565b500290565b6000816136f2576136f26134ce565b506000190190565b634e487b7160e01b600052603160045260246000fd5b60008251613722818460208701613027565b9190910192915050565b60008261374957634e487b7160e01b600052601260045260246000fd5b50049056fe45524332305072657365744d696e7465725061757365723a206d757374206861360894a13ba1a3210667c828492db98dca3e2076cc3735a920a3ca505d382bbc65d7a28e3265b37a6474929f336521b332c1681b933f6cb9f3376673440d862a416464726573733a206c6f772d6c6576656c2064656c65676174652063616c6c206661696c6564a2646970667358221220696adfaede62a52d63d76bb7094de90390cf94409a3753f8206625be4750b9f864736f6c634300080a0033",
  "devdoc": {
    "kind": "dev",
    "methods": {
      "DOMAIN_SEPARATOR()": {
        "details": "See {IERC20Permit-DOMAIN_SEPARATOR}."
      },
      "allowance(address,address)": {
        "details": "See {IERC20-allowance}."
      },
      "approve(address,uint256)": {
        "details": "See {IERC20-approve}. NOTE: If `amount` is the maximum `uint256`, the allowance is not updated on `transferFrom`. This is semantically equivalent to an infinite approval. Requirements: - `spender` cannot be the zero address."
      },
      "balanceOf(address)": {
        "details": "See {IERC20-balanceOf}."
      },
      "balanceOfAt(address,uint256)": {
        "details": "Retrieves the balance of `account` at the time `snapshotId` was created."
      },
      "burn(uint256)": {
        "details": "Destroys `amount` tokens from the caller. See {ERC20-_burn}."
      },
      "burnFrom(address,uint256)": {
        "details": "Destroys `amount` tokens from `account`, deducting from the caller's allowance. See {ERC20-_burn} and {ERC20-allowance}. Requirements: - the caller must have allowance for ``accounts``'s tokens of at least `amount`."
      },
      "decimals()": {
        "details": "Returns the number of decimals used to get its user representation. For example, if `decimals` equals `2`, a balance of `505` tokens should be displayed to a user as `5.05` (`505 / 10 ** 2`). Tokens usually opt for a value of 18, imitating the relationship between Ether and Wei. This is the value {ERC20} uses, unless this function is overridden; NOTE: This information is only used for _display_ purposes: it in no way affects any of the arithmetic of the contract, including {IERC20-balanceOf} and {IERC20-transfer}."
      },
      "decreaseAllowance(address,uint256)": {
        "details": "Atomically decreases the allowance granted to `spender` by the caller. This is an alternative to {approve} that can be used as a mitigation for problems described in {IERC20-approve}. Emits an {Approval} event indicating the updated allowance. Requirements: - `spender` cannot be the zero address. - `spender` must have allowance for the caller of at least `subtractedValue`."
      },
      "getRoleAdmin(bytes32)": {
        "details": "Returns the admin role that controls `role`. See {grantRole} and {revokeRole}. To change a role's admin, use {_setRoleAdmin}."
      },
      "getRoleMember(bytes32,uint256)": {
        "details": "Returns one of the accounts that have `role`. `index` must be a value between 0 and {getRoleMemberCount}, non-inclusive. Role bearers are not sorted in any particular way, and their ordering may change at any point. WARNING: When using {getRoleMember} and {getRoleMemberCount}, make sure you perform all queries on the same block. See the following https://forum.openzeppelin.com/t/iterating-over-elements-on-enumerableset-in-openzeppelin-contracts/2296[forum post] for more information."
      },
      "getRoleMemberCount(bytes32)": {
        "details": "Returns the number of accounts that have `role`. Can be used together with {getRoleMember} to enumerate all bearers of a role."
      },
      "grantRole(bytes32,address)": {
        "details": "Grants `role` to `account`. If `account` had not been already granted `role`, emits a {RoleGranted} event. Requirements: - the caller must have ``role``'s admin role."
      },
      "hasRole(bytes32,address)": {
        "details": "Returns `true` if `account` has been granted `role`."
      },
      "increaseAllowance(address,uint256)": {
        "details": "Atomically increases the allowance granted to `spender` by the caller. This is an alternative to {approve} that can be used as a mitigation for problems described in {IERC20-approve}. Emits an {Approval} event indicating the updated allowance. Requirements: - `spender` cannot be the zero address."
      },
      "mint(address,uint256)": {
        "details": "Creates `amount` new tokens for `to`. See {ERC20-_mint}. Requirements: - the caller must have the `MINTER_ROLE`."
      },
      "name()": {
        "details": "Returns the name of the token."
      },
      "nonces(address)": {
        "details": "See {IERC20Permit-nonces}."
      },
      "owner()": {
        "details": "Returns the address of the current owner."
      },
      "pause()": {
        "details": "Pauses all token transfers. See {ERC20Pausable} and {Pausable-_pause}. Requirements: - the caller must have the `PAUSER_ROLE`."
      },
      "paused()": {
        "details": "Returns true if the contract is paused, and false otherwise."
      },
      "permit(address,address,uint256,uint256,uint8,bytes32,bytes32)": {
        "details": "See {IERC20Permit-permit}."
      },
      "proxiableUUID()": {
        "details": "Implementation of the ERC1822 {proxiableUUID} function. This returns the storage slot used by the implementation. It is used to validate that the this implementation remains valid after an upgrade. IMPORTANT: A proxy pointing at a proxiable contract should not be considered proxiable itself, because this risks bricking a proxy that upgrades to it, by delegating to itself until out of gas. Thus it is critical that this function revert if invoked through a proxy. This is guaranteed by the `notDelegated` modifier."
      },
      "renounceOwnership()": {
        "details": "Leaves the contract without owner. It will not be possible to call `onlyOwner` functions anymore. Can only be called by the current owner. NOTE: Renouncing ownership will leave the contract without an owner, thereby removing any functionality that is only available to the owner."
      },
      "renounceRole(bytes32,address)": {
        "details": "Revokes `role` from the calling account. Roles are often managed via {grantRole} and {revokeRole}: this function's purpose is to provide a mechanism for accounts to lose their privileges if they are compromised (such as when a trusted device is misplaced). If the calling account had been revoked `role`, emits a {RoleRevoked} event. Requirements: - the caller must be `account`."
      },
      "revokeRole(bytes32,address)": {
        "details": "Revokes `role` from `account`. If `account` had been granted `role`, emits a {RoleRevoked} event. Requirements: - the caller must have ``role``'s admin role."
      },
      "supportsInterface(bytes4)": {
        "details": "See {IERC165-supportsInterface}."
      },
      "symbol()": {
        "details": "Returns the symbol of the token, usually a shorter version of the name."
      },
      "totalSupply()": {
        "details": "See {IERC20-totalSupply}."
      },
      "totalSupplyAt(uint256)": {
        "details": "Retrieves the total supply at the time `snapshotId` was created."
      },
      "transfer(address,uint256)": {
        "details": "See {IERC20-transfer}. Requirements: - `to` cannot be the zero address. - the caller must have a balance of at least `amount`."
      },
      "transferFrom(address,address,uint256)": {
        "details": "See {IERC20-transferFrom}. Emits an {Approval} event indicating the updated allowance. This is not required by the EIP. See the note at the beginning of {ERC20}. NOTE: Does not update the allowance if the current allowance is the maximum `uint256`. Requirements: - `from` and `to` cannot be the zero address. - `from` must have a balance of at least `amount`. - the caller must have allowance for ``from``'s tokens of at least `amount`."
      },
      "transferOwnership(address)": {
        "details": "Transfers ownership of the contract to a new account (`newOwner`). Can only be called by the current owner."
      },
      "unpause()": {
        "details": "Unpauses all token transfers. See {ERC20Pausable} and {Pausable-_unpause}. Requirements: - the caller must have the `PAUSER_ROLE`."
      },
      "upgradeTo(address)": {
        "details": "Upgrade the implementation of the proxy to `newImplementation`. Calls {_authorizeUpgrade}. Emits an {Upgraded} event."
      },
      "upgradeToAndCall(address,bytes)": {
        "details": "Upgrade the implementation of the proxy to `newImplementation`, and subsequently execute the function call encoded in `data`. Calls {_authorizeUpgrade}. Emits an {Upgraded} event."
      }
    },
    "version": 1
  },
  "userdoc": {
    "kind": "user",
    "methods": {},
    "version": 1
  },
  "storageLayout": {
    "storage": [
      {
        "astId": 1102,
        "contract": "contracts/RandomToken.sol:RandomToken",
        "label": "_initialized",
        "offset": 0,
        "slot": "0",
        "type": "t_uint8"
      },
      {
        "astId": 1105,
        "contract": "contracts/RandomToken.sol:RandomToken",
        "label": "_initializing",
        "offset": 1,
        "slot": "0",
        "type": "t_bool"
      },
      {
        "astId": 3446,
        "contract": "contracts/RandomToken.sol:RandomToken",
        "label": "__gap",
        "offset": 0,
        "slot": "1",
        "type": "t_array(t_uint256)50_storage"
      },
      {
        "astId": 4384,
        "contract": "contracts/RandomToken.sol:RandomToken",
        "label": "__gap",
        "offset": 0,
        "slot": "51",
        "type": "t_array(t_uint256)50_storage"
      },
      {
        "astId": 184,
        "contract": "contracts/RandomToken.sol:RandomToken",
        "label": "_roles",
        "offset": 0,
        "slot": "101",
        "type": "t_mapping(t_bytes32,t_struct(RoleData)179_storage)"
      },
      {
        "astId": 483,
        "contract": "contracts/RandomToken.sol:RandomToken",
        "label": "__gap",
        "offset": 0,
        "slot": "102",
        "type": "t_array(t_uint256)49_storage"
      },
      {
        "astId": 33,
        "contract": "contracts/RandomToken.sol:RandomToken",
        "label": "_roleMembers",
        "offset": 0,
        "slot": "151",
        "type": "t_mapping(t_bytes32,t_struct(AddressSet)4797_storage)"
      },
      {
        "astId": 143,
        "contract": "contracts/RandomToken.sol:RandomToken",
        "label": "__gap",
        "offset": 0,
        "slot": "152",
        "type": "t_array(t_uint256)49_storage"
      },
      {
        "astId": 1503,
        "contract": "contracts/RandomToken.sol:RandomToken",
        "label": "_balances",
        "offset": 0,
        "slot": "201",
        "type": "t_mapping(t_address,t_uint256)"
      },
      {
        "astId": 1509,
        "contract": "contracts/RandomToken.sol:RandomToken",
        "label": "_allowances",
        "offset": 0,
        "slot": "202",
        "type": "t_mapping(t_address,t_mapping(t_address,t_uint256))"
      },
      {
        "astId": 1511,
        "contract": "contracts/RandomToken.sol:RandomToken",
        "label": "_totalSupply",
        "offset": 0,
        "slot": "203",
        "type": "t_uint256"
      },
      {
        "astId": 1513,
        "contract": "contracts/RandomToken.sol:RandomToken",
        "label": "_name",
        "offset": 0,
        "slot": "204",
        "type": "t_string_storage"
      },
      {
        "astId": 1515,
        "contract": "contracts/RandomToken.sol:RandomToken",
        "label": "_symbol",
        "offset": 0,
        "slot": "205",
        "type": "t_string_storage"
      },
      {
        "astId": 2094,
        "contract": "contracts/RandomToken.sol:RandomToken",
        "label": "__gap",
        "offset": 0,
        "slot": "206",
        "type": "t_array(t_uint256)45_storage"
      },
      {
        "astId": 2236,
        "contract": "contracts/RandomToken.sol:RandomToken",
        "label": "__gap",
        "offset": 0,
        "slot": "251",
        "type": "t_array(t_uint256)50_storage"
      },
      {
        "astId": 1394,
        "contract": "contracts/RandomToken.sol:RandomToken",
        "label": "_paused",
        "offset": 0,
        "slot": "301",
        "type": "t_bool"
      },
      {
        "astId": 1483,
        "contract": "contracts/RandomToken.sol:RandomToken",
        "label": "__gap",
        "offset": 0,
        "slot": "302",
        "type": "t_array(t_uint256)49_storage"
      },
      {
        "astId": 2296,
        "contract": "contracts/RandomToken.sol:RandomToken",
        "label": "__gap",
        "offset": 0,
        "slot": "351",
        "type": "t_array(t_uint256)50_storage"
      },
      {
        "astId": 3076,
        "contract": "contracts/RandomToken.sol:RandomToken",
        "label": "__gap",
        "offset": 0,
        "slot": "401",
        "type": "t_array(t_uint256)50_storage"
      },
      {
        "astId": 2340,
        "contract": "contracts/RandomToken.sol:RandomToken",
        "label": "_accountBalanceSnapshots",
        "offset": 0,
        "slot": "451",
        "type": "t_mapping(t_address,t_struct(Snapshots)2335_storage)"
      },
      {
        "astId": 2343,
        "contract": "contracts/RandomToken.sol:RandomToken",
        "label": "_totalSupplySnapshots",
        "offset": 0,
        "slot": "452",
        "type": "t_struct(Snapshots)2335_storage"
      },
      {
        "astId": 2346,
        "contract": "contracts/RandomToken.sol:RandomToken",
        "label": "_currentSnapshotId",
        "offset": 0,
        "slot": "454",
        "type": "t_struct(Counter)3453_storage"
      },
      {
        "astId": 2644,
        "contract": "contracts/RandomToken.sol:RandomToken",
        "label": "__gap",
        "offset": 0,
        "slot": "455",
        "type": "t_array(t_uint256)46_storage"
      },
      {
        "astId": 4200,
        "contract": "contracts/RandomToken.sol:RandomToken",
        "label": "_HASHED_NAME",
        "offset": 0,
        "slot": "501",
        "type": "t_bytes32"
      },
      {
        "astId": 4202,
        "contract": "contracts/RandomToken.sol:RandomToken",
        "label": "_HASHED_VERSION",
        "offset": 0,
        "slot": "502",
        "type": "t_bytes32"
      },
      {
        "astId": 4340,
        "contract": "contracts/RandomToken.sol:RandomToken",
        "label": "__gap",
        "offset": 0,
        "slot": "503",
        "type": "t_array(t_uint256)50_storage"
      },
      {
        "astId": 2696,
        "contract": "contracts/RandomToken.sol:RandomToken",
        "label": "_nonces",
        "offset": 0,
        "slot": "553",
        "type": "t_mapping(t_address,t_struct(Counter)3453_storage)"
      },
      {
        "astId": 2704,
        "contract": "contracts/RandomToken.sol:RandomToken",
        "label": "_PERMIT_TYPEHASH_DEPRECATED_SLOT",
        "offset": 0,
        "slot": "554",
        "type": "t_bytes32"
      },
      {
        "astId": 2860,
        "contract": "contracts/RandomToken.sol:RandomToken",
        "label": "__gap",
        "offset": 0,
        "slot": "555",
        "type": "t_array(t_uint256)49_storage"
      },
      {
        "astId": 593,
        "contract": "contracts/RandomToken.sol:RandomToken",
        "label": "_owner",
        "offset": 0,
        "slot": "604",
        "type": "t_address"
      },
      {
        "astId": 705,
        "contract": "contracts/RandomToken.sol:RandomToken",
        "label": "__gap",
        "offset": 0,
        "slot": "605",
        "type": "t_array(t_uint256)49_storage"
      },
      {
        "astId": 1084,
        "contract": "contracts/RandomToken.sol:RandomToken",
        "label": "__gap",
        "offset": 0,
        "slot": "654",
        "type": "t_array(t_uint256)50_storage"
      },
      {
        "astId": 1372,
        "contract": "contracts/RandomToken.sol:RandomToken",
        "label": "__gap",
        "offset": 0,
        "slot": "704",
        "type": "t_array(t_uint256)50_storage"
      }
    ],
    "types": {
      "t_address": {
        "encoding": "inplace",
        "label": "address",
        "numberOfBytes": "20"
      },
      "t_array(t_bytes32)dyn_storage": {
        "base": "t_bytes32",
        "encoding": "dynamic_array",
        "label": "bytes32[]",
        "numberOfBytes": "32"
      },
      "t_array(t_uint256)45_storage": {
        "base": "t_uint256",
        "encoding": "inplace",
        "label": "uint256[45]",
        "numberOfBytes": "1440"
      },
      "t_array(t_uint256)46_storage": {
        "base": "t_uint256",
        "encoding": "inplace",
        "label": "uint256[46]",
        "numberOfBytes": "1472"
      },
      "t_array(t_uint256)49_storage": {
        "base": "t_uint256",
        "encoding": "inplace",
        "label": "uint256[49]",
        "numberOfBytes": "1568"
      },
      "t_array(t_uint256)50_storage": {
        "base": "t_uint256",
        "encoding": "inplace",
        "label": "uint256[50]",
        "numberOfBytes": "1600"
      },
      "t_array(t_uint256)dyn_storage": {
        "base": "t_uint256",
        "encoding": "dynamic_array",
        "label": "uint256[]",
        "numberOfBytes": "32"
      },
      "t_bool": {
        "encoding": "inplace",
        "label": "bool",
        "numberOfBytes": "1"
      },
      "t_bytes32": {
        "encoding": "inplace",
        "label": "bytes32",
        "numberOfBytes": "32"
      },
      "t_mapping(t_address,t_bool)": {
        "encoding": "mapping",
        "key": "t_address",
        "label": "mapping(address => bool)",
        "numberOfBytes": "32",
        "value": "t_bool"
      },
      "t_mapping(t_address,t_mapping(t_address,t_uint256))": {
        "encoding": "mapping",
        "key": "t_address",
        "label": "mapping(address => mapping(address => uint256))",
        "numberOfBytes": "32",
        "value": "t_mapping(t_address,t_uint256)"
      },
      "t_mapping(t_address,t_struct(Counter)3453_storage)": {
        "encoding": "mapping",
        "key": "t_address",
        "label": "mapping(address => struct CountersUpgradeable.Counter)",
        "numberOfBytes": "32",
        "value": "t_struct(Counter)3453_storage"
      },
      "t_mapping(t_address,t_struct(Snapshots)2335_storage)": {
        "encoding": "mapping",
        "key": "t_address",
        "label": "mapping(address => struct ERC20SnapshotUpgradeable.Snapshots)",
        "numberOfBytes": "32",
        "value": "t_struct(Snapshots)2335_storage"
      },
      "t_mapping(t_address,t_uint256)": {
        "encoding": "mapping",
        "key": "t_address",
        "label": "mapping(address => uint256)",
        "numberOfBytes": "32",
        "value": "t_uint256"
      },
      "t_mapping(t_bytes32,t_struct(AddressSet)4797_storage)": {
        "encoding": "mapping",
        "key": "t_bytes32",
        "label": "mapping(bytes32 => struct EnumerableSetUpgradeable.AddressSet)",
        "numberOfBytes": "32",
        "value": "t_struct(AddressSet)4797_storage"
      },
      "t_mapping(t_bytes32,t_struct(RoleData)179_storage)": {
        "encoding": "mapping",
        "key": "t_bytes32",
        "label": "mapping(bytes32 => struct AccessControlUpgradeable.RoleData)",
        "numberOfBytes": "32",
        "value": "t_struct(RoleData)179_storage"
      },
      "t_mapping(t_bytes32,t_uint256)": {
        "encoding": "mapping",
        "key": "t_bytes32",
        "label": "mapping(bytes32 => uint256)",
        "numberOfBytes": "32",
        "value": "t_uint256"
      },
      "t_string_storage": {
        "encoding": "bytes",
        "label": "string",
        "numberOfBytes": "32"
      },
      "t_struct(AddressSet)4797_storage": {
        "encoding": "inplace",
        "label": "struct EnumerableSetUpgradeable.AddressSet",
        "members": [
          {
            "astId": 4796,
            "contract": "contracts/RandomToken.sol:RandomToken",
            "label": "_inner",
            "offset": 0,
            "slot": "0",
            "type": "t_struct(Set)4496_storage"
          }
        ],
        "numberOfBytes": "64"
      },
      "t_struct(Counter)3453_storage": {
        "encoding": "inplace",
        "label": "struct CountersUpgradeable.Counter",
        "members": [
          {
            "astId": 3452,
            "contract": "contracts/RandomToken.sol:RandomToken",
            "label": "_value",
            "offset": 0,
            "slot": "0",
            "type": "t_uint256"
          }
        ],
        "numberOfBytes": "32"
      },
      "t_struct(RoleData)179_storage": {
        "encoding": "inplace",
        "label": "struct AccessControlUpgradeable.RoleData",
        "members": [
          {
            "astId": 176,
            "contract": "contracts/RandomToken.sol:RandomToken",
            "label": "members",
            "offset": 0,
            "slot": "0",
            "type": "t_mapping(t_address,t_bool)"
          },
          {
            "astId": 178,
            "contract": "contracts/RandomToken.sol:RandomToken",
            "label": "adminRole",
            "offset": 0,
            "slot": "1",
            "type": "t_bytes32"
          }
        ],
        "numberOfBytes": "64"
      },
      "t_struct(Set)4496_storage": {
        "encoding": "inplace",
        "label": "struct EnumerableSetUpgradeable.Set",
        "members": [
          {
            "astId": 4491,
            "contract": "contracts/RandomToken.sol:RandomToken",
            "label": "_values",
            "offset": 0,
            "slot": "0",
            "type": "t_array(t_bytes32)dyn_storage"
          },
          {
            "astId": 4495,
            "contract": "contracts/RandomToken.sol:RandomToken",
            "label": "_indexes",
            "offset": 0,
            "slot": "1",
            "type": "t_mapping(t_bytes32,t_uint256)"
          }
        ],
        "numberOfBytes": "64"
      },
      "t_struct(Snapshots)2335_storage": {
        "encoding": "inplace",
        "label": "struct ERC20SnapshotUpgradeable.Snapshots",
        "members": [
          {
            "astId": 2331,
            "contract": "contracts/RandomToken.sol:RandomToken",
            "label": "ids",
            "offset": 0,
            "slot": "0",
            "type": "t_array(t_uint256)dyn_storage"
          },
          {
            "astId": 2334,
            "contract": "contracts/RandomToken.sol:RandomToken",
            "label": "values",
            "offset": 0,
            "slot": "1",
            "type": "t_array(t_uint256)dyn_storage"
          }
        ],
        "numberOfBytes": "64"
      },
      "t_uint256": {
        "encoding": "inplace",
        "label": "uint256",
        "numberOfBytes": "32"
      },
      "t_uint8": {
        "encoding": "inplace",
        "label": "uint8",
        "numberOfBytes": "1"
      }
    }
  }
}