{
  "address": "0xf1724C243D43DA1aEd2F45eC800fF164fFe13590",
  "abi": [
    {
      "anonymous": false,
      "inputs": [
        {
          "indexed": true,
          "internalType": "address",
          "name": "previousOwner",
          "type": "address"
        },
        {
          "indexed": true,
          "internalType": "address",
          "name": "newOwner",
          "type": "address"
        }
      ],
      "name": "OwnershipTransferred",
      "type": "event"
    },
    {
      "inputs": [
        {
          "internalType": "address",
          "name": "_to",
          "type": "address"
        },
        {
          "internalType": "address",
          "name": "_token",
          "type": "address"
        }
      ],
      "name": "claimMoney",
      "outputs": [],
      "stateMutability": "nonpayable",
      "type": "function"
    },
    {
      "inputs": [],
      "name": "fee",
      "outputs": [
        {
          "internalType": "uint256",
          "name": "",
          "type": "uint256"
        }
      ],
      "stateMutability": "view",
      "type": "function"
    },
    {
      "inputs": [],
      "name": "owner",
      "outputs": [
        {
          "internalType": "address",
          "name": "",
          "type": "address"
        }
      ],
      "stateMutability": "view",
      "type": "function"
    },
    {
      "inputs": [],
      "name": "renounceOwnership",
      "outputs": [],
      "stateMutability": "nonpayable",
      "type": "function"
    },
    {
      "inputs": [
        {
          "internalType": "address payable[]",
          "name": "users",
          "type": "address[]"
        },
        {
          "internalType": "uint256[]",
          "name": "amounts",
          "type": "uint256[]"
        }
      ],
      "name": "sendEther",
      "outputs": [],
      "stateMutability": "payable",
      "type": "function"
    },
    {
      "inputs": [
        {
          "internalType": "address",
          "name": "token",
          "type": "address"
        },
        {
          "internalType": "address payable[]",
          "name": "users",
          "type": "address[]"
        },
        {
          "internalType": "uint256[]",
          "name": "amounts",
          "type": "uint256[]"
        }
      ],
      "name": "sendToken",
      "outputs": [],
      "stateMutability": "payable",
      "type": "function"
    },
    {
      "inputs": [
        {
          "internalType": "address",
          "name": "newOwner",
          "type": "address"
        }
      ],
      "name": "transferOwnership",
      "outputs": [],
      "stateMutability": "nonpayable",
      "type": "function"
    },
    {
      "inputs": [
        {
          "internalType": "uint256",
          "name": "_fee",
          "type": "uint256"
        }
      ],
      "name": "updateFee",
      "outputs": [],
      "stateMutability": "nonpayable",
      "type": "function"
    }
  ],
  "transactionHash": "0xf66375fa98b51dc33fb0a711c87e974abb1384ee8810574ce3b75737918b39cc",
  "args": [],
  "numDeployments": 1,
  "solcInputHash": "604749efdd10f474998b537fc2bf0dfc",
  "bytecode": "0x608060405266038d7ea4c6800060015534801561001b57600080fd5b506100253361002a565b61007a565b600080546001600160a01b038381166001600160a01b0319831681178455604051919092169283917f8be0079c531659141344cd1fd0a4f28419497f9722a3daafe3b4186f6b6457e09190a35050565b610c57806100896000396000f3fe60806040526004361061007b5760003560e01c8063bcc91d611161004e578063bcc91d61146100f7578063ddca3f431461010a578063e30752ef1461012e578063f2fde38b1461014e57600080fd5b80630a333a0f14610080578063715018a6146100955780638da5cb5b146100aa5780639012c4a8146100d7575b600080fd5b61009361008e366004610975565b61016e565b005b3480156100a157600080fd5b506100936102a3565b3480156100b657600080fd5b506000546040516001600160a01b0390911681526020015b60405180910390f35b3480156100e357600080fd5b506100936100f23660046109f8565b6102d9565b610093610105366004610a11565b610308565b34801561011657600080fd5b5061012060015481565b6040519081526020016100ce565b34801561013a57600080fd5b50610093610149366004610a7d565b61042d565b34801561015a57600080fd5b50610093610169366004610ab6565b610587565b60015434146101b45760405162461bcd60e51b815260206004820152600d60248201526c496e76616c69642076616c756560981b60448201526064015b60405180910390fd5b60005b8381101561029b57856001600160a01b03166323b872dd338787858181106101e1576101e1610ad3565b90506020020160208101906101f69190610ab6565b86868681811061020857610208610ad3565b6040516001600160e01b031960e088901b1681526001600160a01b039586166004820152949093166024850152506020909102013560448201526064016020604051808303816000875af1158015610264573d6000803e3d6000fd5b505050506040513d601f19601f820116820180604052508101906102889190610ae9565b508061029381610b21565b9150506101b7565b505050505050565b6000546001600160a01b031633146102cd5760405162461bcd60e51b81526004016101ab90610b3c565b6102d76000610622565b565b6000546001600160a01b031633146103035760405162461bcd60e51b81526004016101ab90610b3c565b600155565b6000805b8481101561034c5783838281811061032657610326610ad3565b90506020020135826103389190610b71565b91508061034481610b21565b91505061030c565b5060015461035a9082610b71565b34146103985760405162461bcd60e51b815260206004820152600d60248201526c496e76616c69642076616c756560981b60448201526064016101ab565b60005b8481101561029b578585828181106103b5576103b5610ad3565b90506020020160208101906103ca9190610ab6565b6001600160a01b03166108fc8585848181106103e8576103e8610ad3565b905060200201359081150290604051600060405180830381858888f1935050505015801561041a573d6000803e3d6000fd5b508061042581610b21565b91505061039b565b6000546001600160a01b031633146104575760405162461bcd60e51b81526004016101ab90610b3c565b6001600160a01b038116610504576000826001600160a01b03164760405160006040518083038185875af1925050503d80600081146104b2576040519150601f19603f3d011682016040523d82523d6000602084013e6104b7565b606091505b50509050806104ff5760405162461bcd60e51b815260206004820152601460248201527315da5d1a191c985dcb505590560b59985a5b195960621b60448201526064016101ab565b505050565b6040516370a0823160e01b81523060048201526105839083906001600160a01b038416906370a0823190602401602060405180830381865afa15801561054e573d6000803e3d6000fd5b505050506040513d601f19601f820116820180604052508101906105729190610b89565b6001600160a01b0384169190610672565b5050565b6000546001600160a01b031633146105b15760405162461bcd60e51b81526004016101ab90610b3c565b6001600160a01b0381166106165760405162461bcd60e51b815260206004820152602660248201527f4f776e61626c653a206e6577206f776e657220697320746865207a65726f206160448201526564647265737360d01b60648201526084016101ab565b61061f81610622565b50565b600080546001600160a01b038381166001600160a01b0319831681178455604051919092169283917f8be0079c531659141344cd1fd0a4f28419497f9722a3daafe3b4186f6b6457e09190a35050565b604080516001600160a01b038416602482015260448082018490528251808303909101815260649091019091526020810180516001600160e01b031663a9059cbb60e01b1790526104ff9084906000610714826040518060400160405280602081526020017f5361666545524332303a206c6f772d6c6576656c2063616c6c206661696c6564815250856001600160a01b03166107919092919063ffffffff16565b8051909150156104ff57808060200190518101906107329190610ae9565b6104ff5760405162461bcd60e51b815260206004820152602a60248201527f5361666545524332303a204552433230206f7065726174696f6e20646964206e6044820152691bdd081cdd58d8d9595960b21b60648201526084016101ab565b60606107a084846000856107aa565b90505b9392505050565b60608247101561080b5760405162461bcd60e51b815260206004820152602660248201527f416464726573733a20696e73756666696369656e742062616c616e636520666f6044820152651c8818d85b1b60d21b60648201526084016101ab565b6001600160a01b0385163b6108625760405162461bcd60e51b815260206004820152601d60248201527f416464726573733a2063616c6c20746f206e6f6e2d636f6e747261637400000060448201526064016101ab565b600080866001600160a01b0316858760405161087e9190610bd2565b60006040518083038185875af1925050503d80600081146108bb576040519150601f19603f3d011682016040523d82523d6000602084013e6108c0565b606091505b50915091506108d08282866108db565b979650505050505050565b606083156108ea5750816107a3565b8251156108fa5782518084602001fd5b8160405162461bcd60e51b81526004016101ab9190610bee565b6001600160a01b038116811461061f57600080fd5b60008083601f84011261093b57600080fd5b50813567ffffffffffffffff81111561095357600080fd5b6020830191508360208260051b850101111561096e57600080fd5b9250929050565b60008060008060006060868803121561098d57600080fd5b853561099881610914565b9450602086013567ffffffffffffffff808211156109b557600080fd5b6109c189838a01610929565b909650945060408801359150808211156109da57600080fd5b506109e788828901610929565b969995985093965092949392505050565b600060208284031215610a0a57600080fd5b5035919050565b60008060008060408587031215610a2757600080fd5b843567ffffffffffffffff80821115610a3f57600080fd5b610a4b88838901610929565b90965094506020870135915080821115610a6457600080fd5b50610a7187828801610929565b95989497509550505050565b60008060408385031215610a9057600080fd5b8235610a9b81610914565b91506020830135610aab81610914565b809150509250929050565b600060208284031215610ac857600080fd5b81356107a381610914565b634e487b7160e01b600052603260045260246000fd5b600060208284031215610afb57600080fd5b815180151581146107a357600080fd5b634e487b7160e01b600052601160045260246000fd5b6000600019821415610b3557610b35610b0b565b5060010190565b6020808252818101527f4f776e61626c653a2063616c6c6572206973206e6f7420746865206f776e6572604082015260600190565b60008219821115610b8457610b84610b0b565b500190565b600060208284031215610b9b57600080fd5b5051919050565b60005b83811015610bbd578181015183820152602001610ba5565b83811115610bcc576000848401525b50505050565b60008251610be4818460208701610ba2565b9190910192915050565b6020815260008251806020840152610c0d816040850160208701610ba2565b601f01601f1916919091016040019291505056fea26469706673582212209368f3095184fb815c28f63c31fa3361bc88c9b4815d313afff99d40ea5b977064736f6c634300080a0033",
  "devdoc": {
    "kind": "dev",
    "methods": {
      "owner()": {
        "details": "Returns the address of the current owner."
      },
      "renounceOwnership()": {
        "details": "Leaves the contract without owner. It will not be possible to call `onlyOwner` functions anymore. Can only be called by the current owner. NOTE: Renouncing ownership will leave the contract without an owner, thereby removing any functionality that is only available to the owner."
      },
      "transferOwnership(address)": {
        "details": "Transfers ownership of the contract to a new account (`newOwner`). Can only be called by the current owner."
      }
    },
    "version": 1
  },
  "userdoc": {
    "kind": "user",
    "methods": {},
    "version": 1
  },
  "storageLayout": {
    "storage": [
      {
        "astId": 7,
        "contract": "contracts/TokenMultiSend.sol:TokenMultiSend",
        "label": "_owner",
        "offset": 0,
        "slot": "0",
        "type": "t_address"
      },
      {
        "astId": 737,
        "contract": "contracts/TokenMultiSend.sol:TokenMultiSend",
        "label": "fee",
        "offset": 0,
        "slot": "1",
        "type": "t_uint256"
      }
    ],
    "types": {
      "t_address": {
        "encoding": "inplace",
        "label": "address",
        "numberOfBytes": "20"
      },
      "t_uint256": {
        "encoding": "inplace",
        "label": "uint256",
        "numberOfBytes": "32"
      }
    }
  }
}